:100000000C94D6000C94FE000C94FE000C94FE00A0
:100010000C94FE000C94FE000C94FE000C94FE0068
:100020000C94FE000C94FE000C946F180C94DE18D7
:100030000C94FE000C94FE000C94FE000C94FE0048
:100040000C94FE000C94FE000C94FE000C94FE0038
:100050000C94FE000C94FE000C94FE000C94681BA3
:100060000C94FE000C94361B0C94101B0C94FE0098
:100070000C94FE000C94FE000C94FE000C94FE0008
:100080000C94FE000C94FE000C94FE000C94FE00F8
:100090000C94B21B0C94FE000C94FE000C94FE0019
:1000A0000C94FE000C94FE000C94FE007C3C3E5E22
:1000B0002B3D3F2F5B5D3B2C2A225C0000000002A1
:1000C00000090F0000030401000C00000000000004
:1000D0000000000000000000000000080B00020209
:1000E00002010009040000010202000005240010C2
:1000F000010524010101042402060524060001076C
:1001000005810310004009040100020A00000007F5
:1001100005020240000007058302400000040309B5
:100120000412010002EF0201404123368000010168
:1001300002030141726475696E6F204C4C430041AB
:10014000726475696E6F204C656F6E6172646F00CA
:1001500000000000250028002B002E0031000000C8
:100160000000240027002A002D00300004040404AD
:10017000040304050202020204030202020206064C
:100180000606060604040202020404040802011022
:1001900040804010204080408008020401804020C0
:1001A00010020110801020404020D11C11241FBEDD
:1001B000CFEFDAE0DEBFCDBF27E0AEE2B3E001C0B3
:1001C0001D92A23EB207E1F713E0A0E0B1E0E6E342
:1001D000FDE402C005900D92AE32B107D9F710E0F0
:1001E000C6EDD0E004C02197FE010E944A25C53D1E
:1001F000D107C9F70E944B1D0C9499260C9400005E
:1002000020912E0681E0213208F044C080910A0638
:100210008111FCCF80912D0692E090930A0691E027
:10022000909309069FEF909308061092070620937B
:100230000606ADE0B6E0E6EEF5E090E0291331C049
:100240001092E5059091E505880F892B8093E505CF
:100250008091E405813049F51092E4058091E5052F
:100260008093BB008091BC0083FDF8CF85EC809328
:10027000BC0080910A068230E1F3809108068F3F2E
:10028000B1F0809108068032A1F080910806803399
:1002900091F084E010920C0610922E0610920B063C
:1002A00008953D9131939F5FC9CF85EEE0CF80E007
:1002B000F1CF82E0EFCF83E0EDCF982F80910A0657
:1002C0008111FCCF81E080930A06809309062FEF0D
:1002D0002093080610920706290F209306068093A4
:1002E000E5058091E5058E6E8093E5058091E40536
:1002F0008130F9F41092E4058091E5058093BB000C
:100300008091BC0083FDF8CF85EC8093BC00809188
:100310000A068130E1F380910706891710F4909165
:100320000706A6EEB5E0E4ECF5E080E0891303C033
:10033000089585EEEACF2D9121938F5FF7CF90E05E
:10034000FC01E557FE4F249184599E4FFC01849196
:10035000882399F090E0880F991FFC01E25AFE4F24
:10036000A591B491FC01E05BFE4F859194918FB70C
:10037000F894EC91E22BEC938FBF0895FC018091EF
:10038000C103882311F13FB7F89482E08093E9001C
:100390002091F200822F90E01816190614F481E0E3
:1003A00090E0882339F0289844E64093C0034091B8
:1003B000F1004083222339F02091F200211103C083
:1003C0002BE62093E8003FBF08958FEF9FEF08953D
:1003D0002FB7F89483E08093E9009091E800892F8B
:1003E000807295FF04C09091F20080E4891B2FBFBA
:1003F00008958091B80381110DC082E08093B40309
:1004000084E08093B5031092B7031092B60381E0A5
:100410008093B80384EB93E0089508950895409184
:100420008403509185032091820330918303421706
:100430005307B4F49091E8009570E1F39091E800CF
:1004400092FD19C08093F1008091840390918503FF
:1004500001968F739927892B19F48EEF8093E8000A
:1004600080918403909185030196909385038093F6
:10047000840381E0089580E00895EF92FF920F9346
:100480001F93CF93DF93F82E192FE62E042F81E0D0
:10049000860F880F0E940F0283E00E940F02CF2D6B
:1004A000D12FEC0EFD2EF11CCE15DF05B9F007FFA4
:1004B00013C0FE0184910E940F02182F80E00E9459
:1004C0000F02812321968111EFCFDF91CF911F91F0
:1004D0000F91FF90EF9008958881EDCF81E0F5CFE7
:1004E000DF92EF92FF920F931F93CF93DF93D82E5B
:1004F0008A01EB017B01E40EF51ECE15DF0559F0F4
:10050000D7FE12C0FE0184910E940F022196811134
:10051000F4CF0FEF1FEFC801DF91CF911F910F9123
:10052000FF90EF90DF9008958881EECF0F931F9397
:10053000CF93DF931F92CDB7DEB782E0898342E489
:1005400050E06BED70E080E80E9470020E94F901BB
:10055000DC0112960D911C910115110589F0D8014D
:10056000ED91FC910280F381E02DBE016F5F7F4F22
:10057000C801099597FD04C0F80100851185ECCFED
:1005800089810F90DF91CF911F910F910895615054
:1005900030F02091F100FC0120830196F8CF2898DB
:1005A00084E68093C0030895DC01ED91FC910190F5
:1005B000F081E02D0994AF92BF92CF92DF92EF923B
:1005C000FF920F931F93CF93DF936C017B018B01FD
:1005D000040F151FEB015E01AE18BF08C017D1074D
:1005E00059F06991D601ED91FC910190F081E02DD7
:1005F000C6010995892B79F7C501DF91CF911F912C
:100600000F91FF90EF90DF90CF90BF90AF90089543
:10061000FC01538D448D252F30E0842F90E0821B08
:10062000930B541710F0CF96089501970895FC018D
:10063000918D828D981761F0A28DAE0FBF2FB11DE5
:100640005D968C91928D9F5F9F73928F90E008953D
:100650008FEF9FEF0895FC01918D828D981731F0F7
:10066000828DE80FF11D858D90E008958FEF9FEF4B
:100670000895FC01918D228D892F90E0805C9F4F21
:10068000821B91098F73992708958FE296E00E944B
:10069000390321E0892B09F420E0822F089580E0BE
:1006A00090E0892B29F00E94450381110C940000F1
:1006B0000895FC01A48DA80FB92FB11DA35ABF4FF7
:1006C0002C91848D90E001968F739927848FA68951
:1006D000B7892C93A089B1898C9182748C93938D66
:1006E000848D981306C00288F389E02D80818F7D68
:1006F00080830895EF92FF920F931F93CF93DF9320
:10070000EC0181E0888F9B8D8C8D981319C0E8894E
:10071000F989808185FF14C09FB7F894EE89FF891D
:100720006083E889F9898081827480839FBF81E03A
:1007300090E0DF91CF911F910F91FF90EF9008957E
:10074000F62E0B8D10E00F5F1F4F0F731127E02E59
:100750008C8D8E110CC00FB607FCFACFE889F98991
:10076000808185FFF5CFCE010E945903F1CFEB8D3B
:10077000EC0FFD2FF11DE35AFF4FF0829FB7F89465
:100780000B8FEA89FB8980818062CFCFCF93DF9383
:10079000EC01888D8823B9F0AA89BB89E889F98999
:1007A0008C9185FD03C0808186FD0DC00FB607FCCE
:1007B000F7CF8C9185FFF2CF808185FFEDCFCE0101
:1007C0000E945903E9CFDF91CF910895CF93DF9332
:1007D0001F92CDB7DEB76983DC01ED91FC910280F9
:1007E000F381E02D41E050E0BE016F5F7F4F09953E
:1007F0000F90DF91CF91089583E08093E90080917D
:10080000F200882319F08AE38093E80008950E949B
:10081000E80190E00895CF93DF931F92CDB7DEB744
:10082000FC018485958597FD08C02FEF3FEF358744
:1008300024870F90DF91CF910895CE0101960E94F9
:10084000BE01019719F4898190E0F3CF8FEF9FEFFC
:10085000F0CF0F931F93CF93DF931F92CDB7DEB7E7
:100860008C01FC018485958597FF0BC0CE01019614
:100870000E94BE01019771F4898190E0F80195878B
:100880008487F801848595850F90DF91CF911F9122
:100890000F9108958FEF9FEFF1CFFC01848595852F
:1008A00097FD0BC09FB7F89482E08093E900809198
:1008B000F2009FBF90E0019608959FB7F89482E000
:1008C0008093E9008091F2009FBF90E00895282F67
:1008D00030E0F901E454FF4F9491F901E557FE4FE0
:1008E000849124593E4FF9012491222309F430C008
:1008F0009923E9F091509F30D0F4E92FF0E0ED57C3
:10090000FB4F0C944A25B104B5049204A904AD042C
:10091000970497049704B804BE04C204C604CC0428
:100920009704D004909180009F7790938000E22FED
:10093000F0E0EE0FFF1FE05BFE4FA591B4919FB773
:10094000F894EC91611132C080958E238C939FBFF7
:100950000895909180009F7DE8CF90918000977FCF
:10096000E4CF94B59F7794BDE2CF94B59F7DFBCF44
:10097000909190009F7790939000D9CF90919000A4
:100980009F7DF9CF90919000977FF5CF9091C00017
:100990009F779093C000CBCF9091C0009F7DF9CFFF
:1009A0009091C200977F9093C200C1CF8E2BCECF83
:1009B0003FB7F89480917E0390917F03A0918003CC
:1009C000B091810326B5A89B05C02F3F19F0019671
:1009D000A11DB11D3FBFBA2FA92F982F8827BC0199
:1009E000CD01620F711D811D911D42E0660F771FC1
:1009F000881F991F4A95D1F708958F929F92AF92C1
:100A0000BF92CF92DF92EF92FF924B015C010E9466
:100A1000D8046B017C010E94D8046C197D098E09F1
:100A20009F09683E734081059105A8F321E0821A71
:100A30009108A108B10888EEC80E83E0D81EE11C19
:100A4000F11C81149104A104B10429F7FF90EF90E7
:100A5000DF90CF90BF90AF909F908F9008958F922E
:100A60009F92AF92BF92CF92DF92EF92FF920F933D
:100A70001F93CF93DF936C017B018A0180910F015B
:100A8000882309F45CC08091C103882309F457C00E
:100A90008091880380FF05C08091E0008260809390
:100AA000E000E801B12C8AEFA82E93E0892E2AE31A
:100AB000922E209711F4BB20D9F10E94E8018111F8
:100AC0000AC0AA94AA20D9F161E070E080E090E029
:100AD0000E94FD04EECF8C171D0611F00CF08C2F38
:100AE0009FB7F8948092E9002091E80025FD02C0AC
:100AF0009FBFDFCF282F30E0C21BD30BF7018150FF
:100B000020F041914093F100FACFE20EF31EBB209A
:100B100021F09092E800B12CEBCF8091E80085FDA8
:100B2000E7CF9092E800BB24B394209709F3F3CF6A
:100B30005D9884E680938703101611063CF081E0EF
:100B400090E0F6019383828310E000E0C801DF911A
:100B5000CF911F910F91FF90EF90DF90CF90BF90BA
:100B6000AF909F908F9008952FB7F89460917A037B
:100B700070917B0380917C0390917D032FBF08953A
:100B8000089508958FB7F894809173038FBF0895E7
:100B900061E0FC0184810E946704809172038111ED
:100BA0001092720308958CBD9DBD0895CF93DF937D
:100BB000EC0180917203811109C081E0809372037E
:100BC00080911C0790911D070E94D30560E08C81E5
:100BD000DF91CF910C946704FC01DB0112968D919B
:100BE0009C9113979383828387E591E0918380831F
:100BF00014968C911497848315968C911597858300
:100C000016964D915D916D917C911997468357830E
:100C1000608771871A964D915D916D917C911D97BA
:100C200042875387648775871E964D915D916D91BC
:100C30007C91519746875787608B718B52968C9128
:100C40005297828B53964D915D916D917C91569701
:100C5000438B548B658B768B57964D915D916D913F
:100C60007C915A97478B508F618F728F5B968D91D5
:100C70009C91948F838F08950895DC015996ED918E
:100C8000FC913097B9F083899489A589B68942850A
:100C9000538564857585841B950BA60BB70B811551
:100CA00020E89207A105B10538F08FEF9FE7A0E09B
:100CB000B0E0089590E080E00895CF93DF931F9215
:100CC000CDB7DEB76983DC01ED91FC910280F38141
:100CD000E02D41E050E0BE016F5F7F4F09950F901E
:100CE000DF91CF910895CF93CFB7F894809171039E
:100CF000811124C0EDE7F1E08491ECE9F1E09491F9
:100D0000E82FF0E0EE0FFF1FE25AFE4FA591B491DD
:100D1000EC91E92321F461E081E10E94670481E123
:100D20000E949F018CB580618CBD8CB580648CBDA8
:100D30008FE00E949F0180E10E949F0180917103DA
:100D40008F5F80937103CFBFCF91089585ED80931E
:100D5000BC008091BC0084FDFCCF10920A0608956F
:100D600020914E03260F3327331F21323105ECF437
:100D700020910A06FC0190E080E0243069F082E0D6
:100D80000895A0914E032191AC01425D5C4FA40FE8
:100D9000B52FB11D2C930196861798F380914E03C1
:100DA000680F60934E0380E0089581E008950895F0
:100DB000E0918F0380918E03E81730F4F0E0EC535C
:100DC000FA4F808190E008958FEF9FEF0895909102
:100DD0008F0380918E032FEF3FEF981748F4E92F90
:100DE000F0E0EC53FA4F208130E09F5F90938F0347
:100DF000C901089580918E0390918F03891B990BEF
:100E00000895CF92DF92EF92FF920F931F93CF93AB
:100E1000DF937C01CB018A0120910B06222389F00C
:100E2000EB016B01C40ED51ECC15DD0569F069918F
:100E3000D701ED91FC910190F081E02DC70109955A
:100E4000F3CF642F0E94B006C801DF91CF911F91AC
:100E50000F91FF90EF90DF90CF900895CF93DF93A5
:100E60001F92CDB7DEB7698320910B062223F9F0DC
:100E700020912E06203258F021E030E0FC0133832F
:100E8000228390E080E00F90DF91CF9108958091D0
:100E90000C06E82FF0E0E35FF94F998190838F5FB4
:100EA00080930C0680932E0681E090E0ECCF61E009
:100EB000CE0101960E94B006F7CFCF93C82F81E0F4
:100EC00080930B0687E780932D0610920C061092F4
:100ED0002E0664EF87E697E00E942E076C2F87E6C8
:100EE00097E00E942E07CF910C94000190E080E0E3
:100EF00008958EBD00000DB407FEFDCF8EB5089598
:100F00008FEF0C9479070F931F93CF93DF93EC012E
:100F10000E94B4058B010E9480078F3F69F00E94F8
:100F2000B405601B710B6C177D07A8F380E0DF919F
:100F3000CF911F910F91089581E0F9CF8F929F92E9
:100F4000AF92BF92FF920F931F93CF93DF93EC0169
:100F5000F62E49015A018E81882389F08F81988568
:100F60009C012F5F3F4F38872F838230924018F4C7
:100F70000E948007F3CFCE010E94C8051E82CE01D9
:100F80000E94D6058CE291E00E9483078F2D806439
:100F90000E94790708E110E0D501C401002E04C0C9
:100FA000B695A795979587950A94D2F70E947907E9
:100FB00008501109083F8FEF180771F785E9FF20E6
:100FC00021F028E087E8F2128FEF0E94790710E005
:100FD0000E9480078A8787FF04C01F3F11F01F5FB0
:100FE000F7CFDF91CF911F910F91FF90BF90AF90FE
:100FF0009F908F900895AF92BF92CF92DF92EF9221
:10100000FF920F931F93CF93DF93EC016901C80107
:10101000820F931F8130924050F58E81882379F0A2
:1010200088819981AA81BB8184179507A607B70794
:1010300031F48F819885C816D90608F042C04883DC
:1010400059836A837B838B85833039F089E0440F31
:10105000551F661F771F8A95D1F79A01AB0161E191
:10106000CE010E949E07882389F083E08D83CE0104
:101070000E94C80580E0DF91CF911F910F91FF90F2
:10108000EF90DF90CF90BF90AF9008950E94B4058D
:101090005B010E9480078A878F3F69F40E94B40534
:1010A0006A197B096D327140A0F38FE08D83CE0108
:1010B0000E94C805DCCF8E3F89F418861F8281E02C
:1010C0008E838F8198858C159D0550F40E94800732
:1010D0008F819885019698878F83F3CF8DE0E6CF37
:1010E0006701E00EF11E0E948007F60181936F01F7
:1010F000EE15FF05C1F78F819885080F191F188716
:101100000F838985882319F001151240A0F08E8184
:10111000882389F08F8198859C012F5F3F4F388706
:101120002F838230924018F40E948007F3CFCE01C3
:101130000E94C8051E8281E09ECFEF92FF920F931E
:101140001F93CF93DF93EC01790182E141155105A3
:101150006105710599F08B85833039F089E0440F82
:10116000551F661F771F8A95D1F79A01AB0168E179
:10117000CE010E949E07882319F084E08D8330C041
:101180008EEF0E94790787018EEFF81AF80181919E
:101190008F010E9479070E151F05C1F78FEF0E947E
:1011A00079078FEF0E9479070E9480078A878F71E5
:1011B000853089F488E592E00E9483078823A9F0AE
:1011C00020E030E0A9016DE0CE010E949E07882357
:1011D00071F084E1D3CF81E18D83CE010E94C805F7
:1011E000CE010E94C80580E00AC085E1C7CF0E94F9
:1011F00080078111EECFCE010E94C80581E0DF910A
:10120000CF911F910F91FF90EF900895CF93DF93AF
:10121000809174038823A9F1C091C205D091C305C0
:101220004091000150910101609102017091030110
:1012300022EC33E0CE010E949D08811104C080E0C1
:10124000DF91CF910895409175035091760360919D
:10125000770370917803411551056105710579F0A7
:1012600022EC33E0CE010E949D08882341F31092C6
:101270007503109276031092770310927803109200
:10128000740381E0DDCF8F929F92AF92BF92EF9275
:10129000FF920F931F93CF934B015C01C42F80915A
:1012A000000190910101A0910201B0910301881504
:1012B0009905AA05BB0549F10E94060981110BC0D9
:1012C00080E0CF911F910F91FF90EF90BF90AF9072
:1012D0009F908F90089582ECE82E83E0F82E00E036
:1012E00012E030E020E0B501A4018091C2059091A8
:1012F000C3050E94FB07882319F380920001909296
:101300000101A0920201B0920301409174034C2BA1
:101310004093740381E0D5CF8F929F92AF92BF929A
:10132000CF92DF92EF92FF92CF932EE137E030938E
:10133000C3052093C205882309F46DC040E060E036
:1013400070E0CB010E94430981110BC080E0CF9176
:10135000FF90EF90DF90CF90BF90AF909F908F90D5
:101360000895809180058F7789F780918C05909101
:101370008D05A0918E05B0918F0584369105A1054C
:10138000B10520F3C0908805D0908905E0908A05CA
:10139000F0908B05C114D104E104F104B9F240E0EE
:1013A000C701B6010E944309882381F28091CD03D1
:1013B0009091CE038115924049F6A091D203AA23C1
:1013C00029F26091D0037091D1036115710509F480
:1013D000BDCF2091CF03222309F4B8CFA0933C07BF
:1013E00020932E0790E080E030E0E1E0F0E0C82FAD
:1013F000AF01082E02C0440F551F0A94E2F72417CC
:10140000350769F041E0480F01968930910579F779
:10141000409337079BCFC12CD12C7601C0CF80934E
:1014200037072091D8033091D90350E040E02115CF
:10143000310541F42091E6033091E7034091E80340
:101440005091E90320932F073093300740933107E1
:101450005093320746015701860E971EA11CB11CFE
:1014600080923D0790923E07A0923F07B0924007BE
:10147000E091D303F091D403F0934307E093420744
:10148000B0E00E94C723DC01CB01880D991DAA1D85
:10149000BB1D8093440790934507A0934607B093E4
:1014A000470725E0EE0FFF1F2A95E1F7E150FE4FB9
:1014B000EF2FFF27E6958E0F9F1FA11DB11D809373
:1014C000380790933907A0933A07B0933B07809071
:1014D000D5039090D603B12CA12C8114910441F432
:1014E0008090E2039090E303A090E403B090E503C2
:1014F000C81AD90AEA0AFB0AC80CD91CEA1CFB1C48
:1015000004C0F694E794D794C794CA95D2F7C092D2
:101510003307D0923407E0923507F092360785EF13
:10152000C8168FE0D806E104F10428F48CE080931B
:10153000410781E00CCF80E125EFC2162FEFD206E4
:10154000E104F104A0F38091EE039091EF03A091E8
:10155000F003B091F1038093440790934507A09363
:101560004607B093470780E2E2CF4F925F926F92B7
:101570007F928F929F92AF92BF92CF92DF92EF9223
:10158000FF920F931F93CF93DF93EC0142305105ED
:101590006105710590F480E0DF91CF911F910F916B
:1015A000FF90EF90DF90CF90BF90AF909F908F9083
:1015B0007F906F905F904F90089589859A85AB8555
:1015C000BC850196A11DB11D84179507A607B70715
:1015D00010F3CB88DC88ED88FE888F89803109F094
:1015E00042C0BB27A72F962F852F480159012A01FA
:1015F0003B01C80ED91EEA1EFB1E8091000190918E
:101600000101A0910201B0910301C816D906EA06B2
:10161000FB0699F58F898031C1F5B301A2015527E9
:1016200066277727440F551F4E535C4FFA0191826E
:101630008082809174038160809374038A898230F0
:1016400080F08D819E81AF81B8858C0D9D1DAE1D72
:10165000BF1D8093750390937603A0937703B09397
:10166000780381E099CFDB01CA01E7E0B695A79541
:1016700097958795EA95D1F7B8CF40E0C701B601B5
:101680000E9443098111C6CF86CFB301A2014F77D3
:10169000552766277727440F551F440F551F4E5374
:1016A0005C4FFA0180829182A282B382C2CF8F9274
:1016B0009F92AF92BF92CF92DF92EF92FF920F93E1
:1016C0001F93CF93DF93FC0181859285A385B48519
:1016D0000196A11DB11D84179507A607B70770F4E1
:1016E00080E0DF91CF911F910F91FF90EF90DF90FD
:1016F000CF90BF90AF909F908F90089583889488EB
:10170000A588B6888789803189F5BB27A72F962FB2
:10171000852FE9016A017B018F01BC01CD01680DB4
:10172000791D8A1D9B1D8090000190900101A09061
:101730000201B090030186169706A806B90601F5C6
:10174000F8018789803111F5DD24EE24FF24F601AC
:10175000EE0FFF1FEE53FC4F80819181B0E0A0E0BF
:1017600088839983AA83BB8381E0BBCFDB01CA0155
:10177000C7E0B695A79597958795CA95D1F7C9CF34
:1017800040E00E9443098111DBCFAACFE894C7F85B
:10179000DD24EE24FF24F601EE0FFF1FEE0FFF1FE6
:1017A000EE53FC4F80819181A281B381BF70D8CF6D
:1017B0004F925F926F927F92AF92BF92CF92DF92E1
:1017C000EF92FF920F931F93CF93DF9300D000D03F
:1017D000CDB7DEB78C0149835A836B837C83590173
:1017E000C12CD12C7601412C82E0582E612C712C19
:1017F00049815A816B817C819E012F5F3F4FC801D7
:101800000E94570B882339F1F8018585A3019201C5
:1018100004C0220F331F441F551F8A95D2F7DA01E7
:10182000C901C80ED91EEA1EFB1E49815A816B816F
:101830007C818789803111F188EF9FEFAFEFBFE0A6
:10184000481759076A077B0798F2F501C082D182D1
:10185000E282F38281E00F900F900F900F90DF9162
:10186000CF911F910F91FF90EF90DF90CF90BF909D
:10187000AF907F906F905F904F90089588EF9FEFAB
:10188000A0E0B0E0DDCFCF93DF93FC0125812223E0
:1018900021F080E0DF91CF910895EC018091410724
:1018A000803159F582E08583178A108E118E128E51
:1018B0008091420790914307B0E0A0E025E0880FB7
:1018C000991FAA1FBB1F2A95D1F7838B948BA58BD9
:1018D000B68B8AE297E09C8F8B8F81E08C831E828F
:1018E0001F82188619861A861B861C861D861E86F0
:1018F0001F86188A198A1A8ACDCF803251F683E062
:101900008583409144075091450760914607709147
:101910004707478B508F618F728F9F012D5E3F4F1E
:101920008AE297E00E94D80B8111D3CFB2CF8F9279
:101930009F92AF92BF92CF92DF92EF92FF920F935E
:101940001F93CF93DF93EC018D8181110EC080E056
:10195000DF91CF911F910F91FF90EF90DF90CF908B
:10196000BF90AF909F908F9008950B891C892D890F
:101970003E89041715072607370748F34A015B011C
:10198000823031F48A869B86AC86BD8681E0E0CFCA
:1019900081149104A104B10449F41E821F821886A7
:1019A00019861A861B861C861D86F0CF0A851B8524
:1019B0002C853D85EB8DFC8D858590E00996B901E0
:1019C000A8014150510961097109082E04C076959A
:1019D0006795579547950A94D2F775016401E1E040
:1019E000CE1AD108E108F10804C0F694E794D79420
:1019F000C7948A95D2F7C416D506E606F70620F0F6
:101A0000012B022B032B11F58F89988DA98DBA8D8F
:101A10008E839F83A887B9878E010A5F1F4FC114E9
:101A2000D104E104F10409F4ADCF4E815F816885F2
:101A3000798598018B8D9C8D0E94570B91E0C91A76
:101A4000D108E108F1088111EACF81CFC41AD50A83
:101A5000E60AF70AE1CF3F924F925F926F927F9230
:101A60008F929F92AF92BF92CF92DF92EF92FF92AE
:101A70000F931F93CF93DF93CDB7DEB72C970FB69D
:101A8000F894DEBF0FBECDBF5C01DC015B968D908C
:101A90009C905C9716964D905D906D907C901997F8
:101AA000411451046104710409F468C0BFEF4B1A7A
:101AB0005B0A6B0A7B0A312CF40181859285A38530
:101AC000B4859C01AD012F5F3F4F4F4F5F4F29877A
:101AD0003A874B875C87730162011D821E821F82D9
:101AE0001886F40181859285A385B4852D813E8178
:101AF0004F815885281739074A075B0708F056C0F9
:101B000089859A85AB85BC858C159D05AE05BF057D
:101B100050F482E0C82ED12CE12CF12C92E0492E19
:101B2000512C612C712C9E012F5F3F4FB701A601F4
:101B3000C4010E94570B8823C9F189819A81AB8126
:101B4000BC81892B8A2B8B2B09F1260137019FEF52
:101B5000491A590A690A790A2D813E814F815885AF
:101B60002F5F3F4F4F4F5F4F2D833E834F835887EB
:101B70003FEFC31AD30AE30AF30AB3CFF40140805C
:101B80005180628073803324339496CFC414D5047B
:101B9000E604F70409F70FEF1FEF2FEF3FE0B7015F
:101BA000A601C4010E94B50A811119C080E02C96DB
:101BB0000FB6F894DEBF0FBECDBFDF91CF911F915E
:101BC0000F91FF90EF90DF90CF90BF90AF909F90DC
:101BD0008F907F906F905F904F903F900895F501A8
:101BE00046815781608571854115510561057105F3
:101BF00039F097018601C4010E94B50A8823B1F229
:101C0000D5011696CD92DD92ED92FC921997332074
:101C100051F0D701C6010196A11DB11DF4018083C9
:101C20009183A283B383F5018789908DA18DB28DB5
:101C3000892B8A2B8B2B39F4C78AD08EE18EF28EBA
:101C400084818068848381E0B2CF2F923F924F924B
:101C50005F926F927F928F929F92AF92BF92CF923C
:101C6000DF92EF92FF920F931F93CF93DF9300D0F9
:101C70001F92CDB7DEB7FC018581811118C08FEFAF
:101C80009FEF0F900F900F90DF91CF911F910F91C9
:101C9000FF90EF90DF90CF90BF90AF909F908F908C
:101CA0007F906F905F904F903F902F900895848128
:101CB00080FFE5CF4389548965897689828593853C
:101CC000A485B585312C212C481759076A077B0755
:101CD00019F022242394312C6F012101CE010196A9
:101CE0003C01DF011696BB83AA834114510409F419
:101CF000C5C0F60142855385648575854A01F1E0CA
:101D00009F22D6015B968D919C915C978A019B01E5
:101D1000E9E03695279517950795EA95D1F7159639
:101D2000EC91E230E9F5FC01628D738D848D958D27
:101D3000600F711F821F931FA12C22E0B22EA818E2
:101D4000B9084A145B0408F45201F601248126FD07
:101D500004C0A114F2E0BF0671F4009100011091DB
:101D6000010120910201309103010617170728078E
:101D7000390709F05EC040E00E944309882309F456
:101D80007ECFC4018E539C4FD3019C012A0D3B1D75
:101D9000FC012E173F0709F46CC041914D93F9CF18
:101DA000DC011496BC90BA94B0228114910479F4A9
:101DB000B1100DC0452B462B472B69F5F6018789DD
:101DC000908DA18DB28D86839783A087B187D60130
:101DD0005B96ED91FC915C9716966D917D918D913E
:101DE0009C9119976250710981099109258504C058
:101DF000660F771F881F991F2A95D2F706851785CA
:101E000020893189600F711F821F931F6B0D711D17
:101E1000811D911D91CFD60116964D915D916D91C9
:101E20007C9119972A813B810E94570B8111CFCF5A
:101E300026CF730185019401AB01BC018091C205DD
:101E40009091C3050E94FB07882309F418CF6A0C00
:101E50007B1CF60182859385A485B5858A0D9B1D23
:101E6000A11DB11D82879387A487B5874A185B0897
:101E70003CCF281B390B620E731EEBCF2A9423280C
:101E800009F0FDCE898190E0FCCEFC01818D928D20
:101E9000009711F00C94250E8FEF9FEF08950F938C
:101EA0001F93CF93DF93EC01898D9A8D10E000E0B2
:101EB000009799F00E94250E8C010F3F100769F0E2
:101EC000898D9A8DFC0142855385648575854150C5
:101ED0005109610971090E94970CC801DF91CF91E6
:101EE0001F910F910895CF93DF93EC018D8188238B
:101EF00089F18C8187FF2AC06E857F8588899989C1
:101F000041E00E944309882329F1EA8980E2E89FA1
:101F1000F0011124EE53FC4F3097E1F08D818230B7
:101F200040F48B899C89AD89BE89848F958FA68F5B
:101F3000B78F8F89988D938F828F8F89988DA98D78
:101F4000BA8DB58BA48B8C818F778C83DF91CF91E9
:101F50000C94060980E0DF91CF910895CF93DF9331
:101F6000EC010E94730F882311F01D8281E0DF9144
:101F7000CF910895FC01818D928D009711F00C9402
:101F8000730F08952F923F924F925F926F927F92BC
:101F90008F929F92AF92BF92CF92DF92EF92FF9279
:101FA0000F931F93CF93DF9300D000D0CDB7DEB750
:101FB0008C015B011A01DC0115968C91159781301B
:101FC00009F0C8C014968C9181FFC4C082FDAEC0D8
:101FD0006101D8011A964D915D916D917C911D978B
:101FE000C114D10409F429C15B968D919C915C9731
:101FF000FC0174802FEF270D2A013B0139E0769414
:102000006794579447943A95D1F7722E74207A01C9
:10201000F1E0FF22711020C0E114F104E9F41696FA
:102020004D915D916D917C91199741155105610517
:10203000710509F098C057968D919D910D90BC91B6
:10204000A02D0097A105B10509F0AFC0C8010E94FD
:102050002B0D882309F47EC080E092E08E199F0941
:1020600046018C159D0508F44C01D8015B964D91F5
:102070005C915C9716968D919D910D90BC91A02DD1
:102080000297A109B109FA01258504C0880F991F9B
:10209000AA1FBB1F2A95D2F746855785608971898B
:1020A000840F951FA61FB71F9C01AD01270D311D81
:1020B000411D511D29013A01811432E0930609F0B6
:1020C0007AC08091000190910101A0910201B0912C
:1020D000030184159505A605B70559F48FEF9FEF09
:1020E000DC018093000190930101A0930201B09361
:1020F00003019501B301A2018091C2059091C3052E
:102100000E949D08882331F19EEFB91AC818D9089A
:10211000F80182859385A485B585880D991DA11D3B
:10212000B11D82879387A487B58753CFF801438970
:1021300054896589768982859385A485B5854817F4
:1021400059076A077B0709F443CFC8010E94970C1F
:1021500081113ECF81E090E0D80113969C938E933D
:10216000129780E007C09E012F5F3F4F0E94570BE0
:10217000811102C090E077C089819A81AB81BC81D6
:10218000F801238D348DF901278948EF5FEF60E076
:1021900070E0203121F048EF5FEF6FEF7FE08417B0
:1021A0009507A607B70708F051CFF80186839783F4
:1021B000A087B18751CFE114F10491F5D8011A96A7
:1021C0004D915D916D917C911D9753968D919D914F
:1021D0000D90BC91A02D481759076A077B0700F1A5
:1021E0000E940609882309F4B5CF4092000150925D
:1021F0000101609202017092030180917403816079
:102200008093740397012E533C4FD501C901880D6B
:10221000991DF9018E179F0759F04D914193FACFFF
:1022200041E0C301B2010E9443098111EBCF92CF7B
:10223000821B930BA80EB91E69CFF801838994897C
:10224000A589B68984179507A607B70738F484814E
:10225000438B548B658B768B80688483F8018481F3
:1022600083FD18C0C1010F900F900F900F90DF9168
:10227000CF911F910F91FF90EF90DF90CF90BF9083
:10228000AF909F908F907F906F905F904F903F9016
:102290002F900895C8010E94730F882309F45ACF24
:1022A000E1CFCF93DF931F92CDB7DEB7698341E0D3
:1022B00050E0BE016F5F7F4F0E94C20F0F90DF9111
:1022C000CF910895CF93DF93EC01E98DFA8D30978C
:1022D00049F481E090E09B838A8390E080E0DF9185
:1022E000CF91089513821282898D9A8D0E94C20F18
:1022F000E98DFA8D22813381232B59F7F0CF1F937B
:10230000CF93DF93EB0191E090930B0697E79093C7
:102310002D0610920C0610922E06682F87E697E085
:102320000E942E070E94000182E00E945D0110922F
:102330008F0380938E0387E697E00E94E706182FAD
:1023400087E697E00E94E70620E0822B912B998395
:102350008883DF91CF911F910C9400010F931F93FD
:10236000CF93DF9300D0CDB7DEB78C018EE20E9411
:102370005D0765E070E080E090E00E94FD04BE0132
:102380006F5F7F4F86EF0E947F1189819A81B0E055
:10239000A0E0F80180839183A283B3830F900F9014
:1023A000DF91CF911F910F9108950F931F93CF93BA
:1023B000DF9300D0CDB7DEB78B01BE016F5F7F4FDB
:1023C0000E947F1189819A81F801918380830F9007
:1023D0000F90DF91CF911F910F910895CF93DF93CD
:1023E000EB0191E090930B0697E790932D061092E6
:1023F0000C0610922E06682F87E697E00E942E07A3
:102400000E94000181E00E945D0110928F03809381
:102410008E0387E697E00E94E7068883DF91CF91DD
:102420000C940001CF92DF92EF92FF921F93CF9313
:10243000DF93EC0180E2689FF0011124EE53FC4F22
:102440009385917161F0842F827449F080E0DF916F
:10245000CF911F91FF90EF90DF90CF900895142FB0
:102460006A8B8091000190910101A0910201B091CD
:1024700003018E879F87A88BB98BC488D588F12CE0
:10248000E12C7601DD24CC24CF8AD88EE98EFA8E19
:10249000828D938DB0E0A0E0AC01BD014C295D2997
:1024A0006E297F294F8B588F698F7A8F838588712A
:1024B000B1F4848D958DA68DB78D8B8B9C8BAD8B58
:1024C000BE8B81E08D831F701C831E821F82188645
:1024D00019861A861B861C861D8681E0B8CF80313E
:1024E00009F0B4CF9E012D5E3F4F8B8D9C8D0E94D5
:1024F000D80B882309F4AACF84E0E4CF0C94F42508
:10250000FB0101900020E9F73197AF01461B570B03
:10251000DC01ED91FC910280F381E02D09948F9212
:102520009F92AF92BF92EF92FF920F931F93CF9320
:10253000DF93CDB7DEB7A1970FB6F894DEBF0FBE1D
:10254000CDBF7C01FA01CB0119A2223008F42AE0A8
:102550008E010F5D1F4F822E912CB12CA12CBF013B
:10256000A50194010E940925F901CA016A300CF500
:10257000605DD8016E938D01232B242B252B79F7D9
:1025800090E080E0109721F0BD01C7010E94801209
:10259000A1960FB6F894DEBF0FBECDBFDF91CF91ED
:1025A0001F910F91FF90EF90BF90AF909F908F90F1
:1025B0000895695CDECF2F923F924F925F926F92A7
:1025C0007F928F929F92AF92BF92CF92DF92EF92C3
:1025D000FF921F93CF93DF93EC016A017B01722E70
:1025E000AB019601CB01B6010E94F4246FE771E0C4
:1025F000811126C046015701E894B7F82FEF3FEF4D
:102600004FE75FE7C501B4010E94F42481110CC0BB
:102610002FEF3FEF4FE75FE7C501B4010E94A32210
:1026200063E871E0181664F02FEF3FEF4FE75FE4C7
:10263000C701B6010E94EF241816B4F467E871E0F0
:10264000CE01DF91CF911F91FF90EF90DF90CF905F
:10265000BF90AF909F908F907F906F905F904F90C2
:102660003F902F900C9480122FEF3FEF4FE75FECDD
:10267000C701B6010E94A32287FDE0CF20E030E031
:10268000A901C701B6010E94A322312C212C87FF8A
:1026900009C06DE2CE010E94D4021C01F7FAF09449
:1026A000F7F8F09410E060E070E080E09FE37116CE
:1026B00041F020E030E040E251E40E944E241F5FF0
:1026C000F6CFA70196010E94E2232B013C010E9454
:1026D000C0244B015C012AE0BC01A401CE010E9490
:1026E0008F127C01E20CF31C1123C1F1C501B4016E
:1026F0000E94A8229B01AC01C301B2010E94E12308
:102700004B015C016EE2CE010E94D402E80EF91E7C
:10271000115020F120E030E040E251E4C501B40165
:102720000E9409232B013C010E94C0244B01B12CC3
:10273000A12C2AE0B501A401CE010E948F12E80E5F
:10274000F91EC501B4010E94A8229B01AC01C3017E
:10275000B2010E94E1234B015C01DACFC701DF9196
:10276000CF911F91FF90EF90DF90CF90BF90AF90EF
:102770009F908F907F906F905F904F903F902F90A1
:1027800008950C9480123F924F925F926F927F92C5
:102790008F929F92AF92BF92CF92DF92EF92FF9271
:1027A0000F931F93CF93DF93CDB7DEB72B970FB661
:1027B000F894DEBF0FBECDBF8B01FB01349620E243
:1027C000DF011D922A95E9F744E250E060E070E0F5
:1027D000F8014083518362837383FC018381948178
:1027E000A581B681F80184839583A683B78386E0AB
:1027F00090E0A0E0B0E080879187A287B387108A3D
:10280000118A128A138A19821A821B821C82CE01B3
:1028100001960E94AE1130909003832D8295880F0F
:10282000880F807C8C5C0E945D07B1E068E070E0FE
:1028300080E090E03B1689F065E070E080E090E099
:102840003B1658F0E2E06EE070E080E090E03E166B
:1028500021F06AE170E080E090E00E94FD04BE019A
:102860006B5F7F4F86EF0E947F11CD80DE80F12C61
:10287000E12CFE2CED2CDC2CCC24BE01695F7F4FBB
:1028800088EF0E94EE118F81A7019601280F311D5C
:10289000411D511D288739874A875B878091A30393
:1028A0009091A40329813A814B815C81281B390BCB
:1028B00041095109A091A103B091A2030E94C7232D
:1028C0004B015C01AFE0B594A79497948794AA95C7
:1028D000D1F76091AB037091AC03072E000C880B0D
:1028E000990BBBE0660F771F881F991FBA95D1F728
:1028F0002091AD033091AE03032E000C440B550B19
:10290000280D391D4A1D5B1D0E942B25820E931E2A
:10291000A41EB51E30EA831A3FE0930AA108B1084D
:10292000A5019401C501B4010E94F9242B013C01C9
:102930008CE075946794579447948A95D1F7A09149
:102940009D03B0919E030E9450256B017C019DE088
:10295000F594E794D794C7949A95D1F7A091A503DD
:10296000B091A603A30192010E9450259C01552716
:1029700037FD5095452F2C0D3D1D4E1D5F1D2E5FC3
:102980003F4F4F4F5F4F62E05595479537952795DD
:102990006A95D1F730584F4F5F4FA0919F03B09188
:1029A000A0030E94C7236B017C017FE0F694E794AB
:1029B000D794C7947A95D1F788E090E0831991096C
:1029C000288539854A855B8504C055954795379597
:1029D00027958A95D2F7288739874A875B87A09100
:1029E000A703B091A803A30192010E9450252B01D7
:1029F0003C01EBE07594679457944794EA95D1F7BE
:102A0000A0919B03B0919C03A50194010E945025C5
:102A1000FBE09595879577956795FA95D1F7460EE2
:102A2000571E681E791E8091990390919A03092E72
:102A3000000CAA0BBB0B22E0880F991FAA1FBB1F1B
:102A40002A95D1F7840D951DA61DB71D2C013D01BA
:102A5000032C04C0440C551C661C771C0A94D2F746
:102A600032E0430E511C611C711C32E07594679476
:102A7000579447943A95D1F7288539854A855B85DF
:102A8000241935094609570960E573EC80E090E0A8
:102A900004C095958795779567953A94D2F70E94EB
:102AA000F92497FD67C0660F771F881F991FA7013C
:102AB00096010E94092569017A019927F7FC9A95E8
:102AC0008F2D7E2D6D2D9B01AC010E94F9249B0161
:102AD000AC01AEEDBBE00E94C7234B015C01A3E457
:102AE000B3EEA70196010E945325BC01992777FDFB
:102AF0009095892F4501BB2497FCB094AB2C680DB1
:102B0000791D8A1D9B1D6153714F8F4F9F4F44E06C
:102B100095958795779567954A95D1F76C0D7D1DAD
:102B20008E1D9F1D0E94AA2220E030E048EC52E456
:102B30000E944E24D80154966D937D938D939C935F
:102B4000579781E02B960FB6F894DEBF0FBECDBF2E
:102B5000DF91CF911F910F91FF90EF90DF90CF9079
:102B6000BF90AF909F908F907F906F905F904F90AD
:102B70003F900895A70196010E94092569017A01F5
:102B8000CC0CDD1CEE1CFF1C98CF0F931F93CF9332
:102B9000DF938C01EB0188E2FB0111928A95E9F742
:102BA0004BE050E06BE871E0CE010E948A261B8664
:102BB00081E090E0A0E0B0E08C879D87AE87BF8782
:102BC000F80183819481A581B681888B998BAA8B2A
:102BD000BB8B86E090E0A0E0B0E08C8B9D8BAE8B51
:102BE000BF8B1CA21DA21EA21FA280E090E0A6E93E
:102BF000B3E4888F998FAA8FBB8F80E090E8A9E813
:102C0000B4E48C8F9D8FAE8FBF8F8AE097EDA3E2E7
:102C1000BCE388A399A3AAA3BBA3DF91CF911F9183
:102C20000F9108953F924F925F926F927F928F9291
:102C30009F92AF92BF92CF92DF92EF92FF920F934B
:102C40001F93CF93DF93CDB7DEB72B970FB6F894D2
:102C5000DEBF0FBECDBF7C01FE013196CE010C96CA
:102C60006F0130E23193E817F907E1F7DA0130E05C
:102C700087E09D91B92E992309F43CC09E32F1F46E
:102C80008A30C9F480E02B960FB6F894DEBF0FBEF1
:102C9000CDBFDF91CF911F910F91FF90EF90DF900B
:102CA000CF90BF90AF909F908F907F906F905F90EC
:102CB0004F903F90089538E08AE0DBCFECEAF0E0F7
:102CC0004491442321F031969413FACFDBCF83173C
:102CD000C8F24FED490F4E35A8F64FE9490F4A317A
:102CE00018F440EEB42EB90EF601E30FF11DB082D8
:102CF0003F5FBFCF8981803229F2322E8B01DB0109
:102D00005B968D919C915C97F701948F838F1696BB
:102D10001D921D921D921C921997FB01128613861B
:102D200014861586F80182859385A485B585438927
:102D300054896589768984179507A607B70708F02F
:102D40004DC025E0B695A795979587952A95D1F71B
:102D5000F82FFF70AF2ED80115968C91823008F4B1
:102D600091CFC8010E94250E97FD8CCFF801828576
:102D70009385A485B5854F96A11DB11D8287938744
:102D8000A487B587F0E2AF9EB00111246E537C4F4B
:102D90006115710509F476CFDB018C91882341F030
:102DA000853E09F061C0BB2029F0BB24B394BACFA3
:102DB000B1100EC0F701A28A80910001909101012B
:102DC000A0910201B091030186879787A08BB18BF8
:102DD000DB018C918111E9CFBB24B394832D8271E7
:102DE000823109F04FCFBB2009F44CC0F701668552
:102DF00077858089918941E00E944309882309F4FD
:102E000041CFD70152968C91B0E28B9FC001112423
:102E10008E539C4F009709F435CFFC013A9626E17A
:102E2000DF011D922A95E9F72BE0F601DC01019004
:102E30000D922A95E1F721E238E2FC01318B208BDB
:102E400040E058E057874687338B228B318F208FA5
:102E5000578B468B0E940609882309F413CF432D14
:102E6000D70152966C910AC04BE050E0C6010E9417
:102E70007D26892B09F056CF432D6A2DC7010E946C
:102E8000121201CFF8018581823009F4FBCEC8010E
:102E90000E942B0D882309F4F5CED8015B96ED91A5
:102EA000FC915C9716968D909D90AD90BC90199773
:102EB000B2E08B1A9108A108B108858504C0880C7E
:102EC000991CAA1CBB1C8A95D2F786859785A08978
:102ED000B189880E991EAA1EBB1E8481240135016A
:102EE000480E511C611C711C84149504A604B7047F
:102EF00001F1E1E04E1A5108610871080E940609CB
:102F0000882309F4BFCEE2ECF3E0119282EC95E065
:102F10008E179F07D1F740920001509201016092F5
:102F200002017092030180917403816080937403A5
:102F3000DBCFD8015B96ED91FC91258580E092E096
:102F4000A0E0B0E004C0880F991FAA1FBB1F2A95FC
:102F5000D2F7F8014389548965897689840F951FD2
:102F6000A61FB71F838B948BA58BB68BD701529668
:102F70001C9282EC93E051CFEF92FF920F931F933C
:102F8000CF93DF93EC017B018A011B821A8288EECA
:102F900093E0A0E0B0E08C839D83AE83BF8381E2A9
:102FA00091E0998388838DE190E00E9458259A8F63
:102FB000898F009779F02DE1F701DC0101900D92E6
:102FC0002A95E1F74CE050E0B801CE010C960E9442
:102FD0008A26188EDF91CF911F910F91FF90EF906D
:102FE0000895CF92DF92FF920F931F93CF93DF93B9
:102FF000CDB7DEB7C755D1090FB6F894DEBF0FBE07
:10300000CDBF8C01F62E1C821B8287E5C82E81E085
:10301000D82EDA82C9821E82CE0101960E94430C0C
:10302000BE016F5F7F4FCE01CB960E94EC0519A2C7
:1030300018A2DF8ECE8E1BA221968FAD2197811113
:1030400022C0F8011382128288EE93E0A0E0B0E083
:1030500084839583A683B78381E291E09183808303
:10306000128E118E1486C801C95ADF4F0FB6F8941C
:10307000DEBF0FBECDBFDF91CF911F910F91FF90AB
:10308000DF90CF9008952F2D42E951E0BE01655C9D
:103090007F4FCE014E960E941216882391F2CE01E8
:1030A000CB960E94AE0F8F2D8670863041F449A9D1
:1030B0005AA96BA97CA9CE014E960E94970CBE011D
:1030C000625E7F4FCE0101960E94EC0542E951E01D
:1030D000BE016F5F7F4FC8010E94BC17C4CF1F9213
:1030E0000F920FB60F9211248F939F938091E1005E
:1030F0009091E100937F9093E10083FF0FC01092C5
:10310000E90091E09093EB001092EC0092E3909331
:10311000ED001092C10398E09093F00082FF22C06E
:1031200093E09093E9009091F200992319F09AE3CB
:103130009093E80090918703992341F09091870341
:10314000915090938703911101C05D9A9091C003B3
:10315000992341F09091C00391509093C003911135
:1031600001C0289A84FF18C08091E2008E7E8160A1
:103170008093E2008091E1008F7E8093E100809156
:1031800088038E7E8061809388039F918F910F903A
:103190000FBE0F901F90189580FFF7CF8091E2002F
:1031A0008E7E80618093E2008091E1008E7E80932C
:1031B000E100809188038E7E8160E5CF1F920F929F
:1031C0000FB60F921124CF92DF92EF92FF920F93DE
:1031D0001F932F933F934F935F936F937F938F939F
:1031E0009F93AF93BF93EF93FF93CF93DF93CDB7AD
:1031F000DEB76C97DEBFCDBF1092E9008091E8008A
:1032000083FF25C068E0CE0145960E94C70282EF89
:103210008093E8008D8987FF39C09091E80090FF86
:10322000FCCF982F907609F034C19E894F89588D34
:103230002F89F88C911131C0803861F58091890314
:103240008093F1001092F1008EEF8093E8006C966D
:103250000FB6F894DEBF0FBECDBFDF91CF91FF91C7
:10326000EF91BF91AF919F918F917F916F915F91FE
:103270004F913F912F911F910F91FF90EF90DF9011
:10328000CF900F900FBE0F901F9018959EEF9093C8
:10329000E800C7CF1092F100D5CF913059F48111D9
:1032A000D3CF4130510581F6809189038D7F809382
:1032B0008903CACF933049F48111C6CF41305105FB
:1032C00019F6809189038260F2CF953041F48091A4
:1032D000E80080FFFCCF20682093E300B5CF963054
:1032E00009F0A9C00B8D1C8D22E01092E90010920C
:1032F000850310928403F2122EC010928303109261
:1033000082030E9496021F8299E09983FA8291E0DB
:103310009E8390EA98879AEF998720918403309151
:103320008503275F3F4F3C832B838D831092E900F9
:1033300010928503109284031093830300938203F9
:1033400049E050E0BE016F5F7F4F80E00E94700255
:103350000E94960279CF10938303009382030E9408
:10336000F901DC0112960D911C910115110509F46A
:1033700051C1D801ED91FC910480F581E02DBE0191
:103380006B5E7F4FC8010995009709F03EC1F801B7
:1033900000851185EACFF3E0FF120EC08F898823E4
:1033A00009F440C0823061F440E860E18FE391E0CD
:1033B0000E943D02811148CF81E28093EB0047CF0C
:1033C000813029F440E86BE083E391E0F1CF833072
:1033D00099F70E94F901DC011296ED90FC908E01A4
:1033E0000F5F1F4F6801E114F10479F0D701ED91EF
:1033F000FC910680F781E02DB801C7010995080FFF
:10340000111DF701E084F184EECFD8011C92F60182
:1034100001900020E9F73197BF016C197D0940E068
:10342000C601C6CF6DE171E0FB01449150E080E838
:103430000E94700209CF973009F4BECF983021F472
:1034400081E08093F10000CF993009F0FDCE8370C8
:1034500009F0B2CFE7E1F1E081E031E096E32191BC
:10346000222371F08093E9003093EB00DF01119784
:103470002C912093EC009093ED008F5F873079F7CB
:103480008EE78093EA001092EA008F898093C1034F
:10349000DBCE8B8D9C8D1092E900109285031092EB
:1034A00084039093830380938203898D811192C05A
:1034B0008E899D89913A49F4813209F07DCF47E0A8
:1034C00050E068E071E080E0B3CF913209F074CF52
:1034D000833269F48F89988DB0E0A0E08093040175
:1034E00090930501A0930601B0930701ADCE803201
:1034F00069F48091E80082FFFCCF67E088E091E00A
:103500000E94C7028BEF8093E8009ECE823209F0C2
:103510009BCE8F8980930F01EEEFFFE78591949109
:103520008B3F9C4D51F1E0E0F8E0809108019091D3
:103530000901A0910A01B0910B01803B9440A105C3
:10354000B105F1F480910F0180FD1AC0EE3F8AE0D1
:10355000F80789F587E797E791838083809160007A
:103560008093860388E19BE00FB6F894A89580933A
:1035700060000FBE9093600067CEEEEFFAE0D5CF0B
:10358000808191818737974709F05ECEA895809119
:103590006000886180936000809186038093600062
:1035A000EE3F2AE0F20789F08091FE0A9091FF0A2F
:1035B0009183808349CE808191818737980751F22A
:1035C0009093FF0A8093FE0AC5CF1092FF0A1092D3
:1035D000FE0A3ACE0E94F901DC0112960D911C916F
:1035E0000115110509F4E8CED801ED91FC91019087
:1035F000F081E02DBE016B5E7F4FC80109958111FE
:1036000023CEF80100851185EBCF181619060CF4AE
:103610001BCED2CEF1E0FF12BECE61E271E004CF4C
:103620001F920F920FB60F9211242F933F934F9337
:103630005F936F937F938F939F93AF93BF93EF931A
:10364000FF938FE296E00E945903FF91EF91BF91A3
:10365000AF919F918F917F916F915F914F913F912A
:103660002F910F900FBE0F901F9018951F920F92E1
:103670000FB60F9211242F938F939F93EF93FF9385
:10368000E0913F06F09140068081E0914506F0917F
:10369000460682FD1BC09081809148068F5F8F7324
:1036A00020914906821741F0E0914806F0E0E15D83
:1036B000F94F958F80934806FF91EF919F918F91DD
:1036C0002F910F900FBE0F901F9018958081F4CF0F
:1036D0001F920F920FB60F9211242F933F938F9347
:1036E0009F93AF93BF9380917A0390917B03A091B6
:1036F0007C03B0917D033091790323E0230F2D37B4
:1037000058F50196A11DB11D2093790380937A038A
:1037100090937B03A0937C03B0937D0380917E0301
:1037200090917F03A0918003B09181030196A11D28
:10373000B11D80937E0390937F03A0938003B09389
:103740008103BF91AF919F918F913F912F910F90E6
:103750000FBE0F901F90189526E8230F0296A11D0B
:10376000B11DD2CF1F920F920FB60F9211242F933B
:103770003F934F935F936F937F938F939F93AF93F9
:10378000BF93EF93FF938091B900887F803609F44F
:103790004AC0F0F5883209F4A7C018F5803109F461
:1037A0009BC0B8F4882309F4F9C0883009F494C0A8
:1037B000FF91EF91BF91AF919F918F917F916F9109
:1037C0005F914F913F912F910F900FBE0F901F90DF
:1037D0001895883109F488C0803251F78093080623
:1037E00014C0803409F49DC040F48033B9F38833A9
:1037F000F9F68093080685ECB0C0803509F485C0E1
:10380000883509F496C0883499F60E94A606D0CF70
:10381000883909F48CC038F5883729F050F4883697
:1038200011F0803729F683E080930A061092700326
:1038300057C0883809F47BC0803919F0803809F006
:10384000B7CF80917003803208F071C0E0917003AF
:1038500081E08E0F809370038091BB00F0E0E05B0D
:10386000FC4F80833DC0803B39F0E0F4803A09F49E
:1038700079C0883A09F09CCF84E080930A061092C0
:103880004F0310924E03E0918C03F0918D03099544
:1038900080914E0381110FC081E080934E031092FE
:1038A0002E0309C0803C09F4A6CF883C09F4A3CFBD
:1038B000883B09F07DCFE0914F0381E08E0F80932C
:1038C0004F03F0E0E25DFC4F80818093BB0090915C
:1038D0004F0380914E0329C08091E5058093BB0082
:1038E00085EC8093BC0064CF90910706809106061A
:1038F000981758F5E091070681E08E0F8093070630
:10390000F0E0EA51FA4F8081E9CFE091070681E0CB
:103910008E0F809307068091BB00F0E0EA51FA4FCA
:10392000808390910706809106069817C8F285E873
:10393000D8CFE091070681E08E0F80930706809133
:10394000BB00F0E0EA51FA4F8083809109068111B3
:103950005CCF81E08093E40584EA8093BC00109200
:103960000A0626CF85EC8093BC0010920A0680914F
:103970007003803230F4E0917003F0E0E05BFC4FC4
:1039800010826091700370E0E0918A03F0918B03E4
:1039900080E593E00995109270030ACF1092080613
:1039A00034CFEFE2F6E01382128288EE93E0A0E0DB
:1039B000B0E084839583A683B78323E331E031832A
:1039C00020832DEC30E0358724872CEC30E03787DE
:1039D000268728EC30E0318B208B29EC30E0338BCC
:1039E000228B2AEC30E0358B248B2EEC30E0378BA9
:1039F000268B118E128E138E148EECECF6E0138251
:103A0000128284839583A683B78325E431E03183D2
:103A100020832FEF3FEF35872487ECE1F7E020E5A7
:103A200020831182EEE1F7E015821682118613865B
:103A300042E050E060E070E0448755876687778712
:103A400013A215A614A627E531E033A722A717A6CF
:103A5000E7E6F7E01382128284839583A683B78317
:103A600083E691E0918380831092DB071092DA075E
:103A70001092DD071092DC07E3E7F7E085E791E0BD
:103A80009183808385E697E2A0E0B0E0838394830E
:103A9000A583B6830895CF93DF93CDB7DEB7EF97B5
:103AA0000FB6F894DEBF0FBECDBF789484B58260A8
:103AB00084BD84B5816084BD85B5826085BD85B5D2
:103AC000816085BD80916E00816080936E00109250
:103AD00081008091810082608093810080918100CB
:103AE000816080938100809180008160809380005C
:103AF000809191008260809391008091910081601B
:103B000080939100809190008160809390008091DB
:103B1000C10084608093C1008091C1008260809365
:103B2000C1008091C10081608093C1008091C30079
:103B300081608093C3008091C00082608093C00048
:103B40008091C20081608093C20080917A0084607D
:103B500080937A0080917A00826080937A008091CD
:103B60007A00816080937A0080917A0080688093E7
:103B70007A001092C10310928903109288038091F9
:103B8000D70081608093D70080EA8093D80089B500
:103B9000806189BD89B5826089BD09B400FEFDCF11
:103BA00061E070E080E090E00E94FD048091D80028
:103BB0008F7C80618093D8008091E000807F80932B
:103BC000E0008091E1008E7E8093E1008DE08093A3
:103BD000E200559A209A68EB7BE080E090E00E943A
:103BE000FD0481E10E949F018EE10E949F018FEF01
:103BF0009FEF9093D9068093D806E0913F06F0910D
:103C0000400682E08083E0913B06F0913C06108202
:103C1000E0913D06F0913E0680E1808310924706D8
:103C2000E0914306F091440686E08083E0914106EE
:103C3000F0914206808180618083E0914106F0919D
:103C40004206808188608083E0914106F0914206BF
:103C5000808180688083E0914106F09142068081F6
:103C60008F7D80836DE971E08CEC96E00E94C1133A
:103C70006CEA71E08CEC96E00E94C1136FEB71E08E
:103C80008CEC96E00E94C1136CED71E08CEC96E038
:103C90000E94C1138AE00E949F0161E08AE00E94B5
:103CA00067040E9473068CB583608CBD8DB58E7FD2
:103CB0008DBD8CB58F7D8CBD80E00E947907809191
:103CC0004D07882321F088E497E00E94AE0F109200
:103CD00029071092270710922407109223078AE0E1
:103CE000809322070E94B4058B01809122070E94D5
:103CF0009F0161E0809122070E9467040E94730681
:103D000082E580931C0710921D0780911C079091FB
:103D10001D070E94D3056AE0F62E8FEF0E947907F7
:103D2000FA94F110FACF8EE197E00E94D60520E0D8
:103D300030E0A90160E08EE197E00E949E07F82E36
:103D40008093280721E0821709F408C30E94B40574
:103D5000601B710B613D774050F381E08093230736
:103D60008EE197E00E94C80510928F0310928E0397
:103D700010920C0610922E0610920A0681E0809393
:103D800009061092E40561E082E00E94670461E0A8
:103D900083E00E9467048091B9008E7F8093B90010
:103DA0008091B9008D7F8093B90088E48093B8003A
:103DB00085E48093BC008DE092E090938D03809326
:103DC0008C038EE092E090938B0380938A03BE0174
:103DD0006F5F7F4F80ED0E94EE1189818535D1F5AF
:103DE00083E08093900369E973E08AEA0E94D51129
:103DF0006BE973E08CEA0E94D5116DE973E08EEAFD
:103E00000E94D5116FE973E080EB0E947F1161EA97
:103E100073E082EB0E947F1163EA73E084EB0E94FF
:103E20007F1165EA73E086EB0E94D51167EA73E0C3
:103E300088EB0E94D51169EA73E08AEB0E94D511E4
:103E40006BEA73E08CEB0E94D5116DEA73E08EEBA8
:103E50000E94D5116DE971E08CEC96E00E94C113CF
:103E60006CEA71E08CEC96E00E94C11369EE71E09F
:103E70008CEC96E00E94C1136CED71E08CEC96E046
:103E80000E94C1130E94D8041092910310929203D1
:103E9000109293031092940310929503109296033C
:103EA000109297031092980300E010E0FF24FA9418
:103EB0000E94D8048090910390909203A090930365
:103EC000B09094039B01AC01281939094A095B0998
:103ED00049015A0131E4831632E493063FE0A30618
:103EE000B10408F48FC1605C7D4B804F9F4F68190F
:103EF00079098A099B0960939103709392038093D7
:103F0000930390939403BE016F5F7F4F83E797E025
:103F10000E94C31320E030E0A9016D897E898F895A
:103F2000988D0E94A322882309F4F1C2CE018596C0
:103F30000E94AE118091A3039091A4032DA13EA1F4
:103F40004FA158A5281B390B41095109A091A10384
:103F5000B091A2030E94C7234B015C018FE0B5948E
:103F6000A794979487948A95D1F76091AB03709149
:103F7000AC03072E000C880B990B2BE0660F771F04
:103F8000881F991F2A95D1F72091AD033091AE0378
:103F9000032E000C440B550B280D391D4A1D5B1DCB
:103FA0000E942B25CA01B901680D791D8A1D9B1D30
:103FB000685F7F4F8F4F9F4F34E09595879577953A
:103FC00067953A95D1F70E94AA2220E030E040E2BE
:103FD00051E40E944E242B013C016DE971E08CEC10
:103FE00096E00E94C11365E072E08CEC96E00E94BE
:103FF000C1136CE172E08CEC96E00E94C113409119
:10400000B0035091B1036091B2037091B3032AE001
:104010008CEC96E00E948F126CEB71E08CEC96E0D9
:104020000E94C11369E272E08CEC96E00E94C11319
:104030008090AF03082C000C9908AA08BB082AE05E
:10404000B501A401B7FE0DC06DE28CEC96E00E94B4
:10405000D40244275527BA01481959096A097B092E
:104060002AE08CEC96E00E948F126CEB71E08CECF5
:1040700096E00E94C11364E372E08CEC96E00E942B
:10408000C1134D895E896F89788D22E08CEC96E0B2
:104090000E94DB126CEB71E08CEC96E00E94C11385
:1040A00064E472E08CEC96E00E94C11322E0B3015C
:1040B000A2018CEC96E00E94DB126BE273E08CECC8
:1040C00096E00E94C1136CED71E08CEC96E00E94CA
:1040D000C1138091AF038B33A4F1F092AF0367E17A
:1040E000CE0185960E94F117EEADFFAD309719F025
:1040F00085818111B1C16DE971E08CEC96E00E947F
:10410000C11367E572E08CEC96E00E94C1136CE687
:1041100072E08CEC96E00E94C1136CED71E08CECC7
:1041200096E00E94C113CE0185960E94BA0F8EAD13
:104130009FAD009731F00E94AE0F8EAD9FAD0E94F3
:10414000F4258091AF038F5F8093AF0361E0CE01D0
:1041500001960E94F117EA8DFB8D309719F0858149
:10416000811118C06DE971E08CEC96E00E94C113DA
:1041700067E572E08CEC96E00E94C1136CE672E099
:104180008CEC96E00E94C1136CED71E08CEC96E033
:104190000E94C1136DE971E08CEC96E00E94C1139E
:1041A00068EC72E08CEC96E00E94C1136EED72E058
:1041B0008CEC96E00E94C113EA8DFB8D40E050E04C
:1041C000BA01309721F043895489658976892AE0BC
:1041D0008CEC96E00E948F126BE273E08CEC96E020
:1041E0000E94C1136CED71E08CEC96E00E94C1134B
:1041F0008A8D9B8D009731F00E94AE0F8A8D9B8D2A
:104200000E94F4258CEC96E00E944D04892B09F461
:1042100099C08091DA079091DB0701968F739927F7
:104220009093DB078093DA07AC014658584F5A0148
:104230000E94B4056093D4067093D5068093D60689
:104240009093D7068CEC96E00E940B0497FF78C100
:104250000E94B4054090D4065090D5066090D606D2
:104260007090D70664197509860997094090D006A1
:104270005090D1066090D2067090D30664157505F3
:1042800086059705F8F28091DA079091DB07FC012B
:10429000E658F84F20812A3209F0B4CFFC0131975B
:1042A000EF73FF27E658F84F20812F3E09F0AACF81
:1042B000FC01FE97EF73FF27E658F84F20812D3C55
:1042C00009F0A0CFFC01FF97EF73FF27E658F84FE6
:1042D00080818B3A09F096CF6DE971E08CEC96E025
:1042E0000E94C1136FEE72E08CEC96E00E94C11345
:1042F00063E073E08CEC96E00E94C113E091DA0772
:10430000F091DB07FD97EF73FF27E658F84F4081E8
:1043100050E070E060E020E18CEC96E00E948F12AB
:104320006BEB71E08CEC96E00E94C11360E173E0EE
:104330008CEC96E00E94C1136CED71E08CEC96E081
:104340000E94C1130115110509F4B2CD0E94450365
:10435000882309F4ADCD0E940000AACD2AEA31E0FD
:1043600040E050E068E08EE197E00E949E0782FF07
:104370002AC0F092290780912907812C912C5401A1
:10438000823029F4812C912CA12C40E4B42E20E021
:1043900030E0A90167E38EE197E00E949E07A50146
:1043A000940169E28EE197E00E949E0780932807BE
:1043B0008823D1F00E94B405601B710B613D7740EA
:1043C00030F388E0CBCC54E0F52E0E948007809338
:1043D0002807FA94F110F9CF8A3A11F082E0BECCA6
:1043E00082E080932907C7CF809129078230D1F4DA
:1043F00020E030E0A9016AE38EE197E00E949E0789
:10440000882311F086E0AACC0E948007807C803C43
:1044100019F483E0809329070E9480070E94800797
:104420000E9480078EE197E00E94C80580E5809396
:104430001C0710921D0781E00E948C09882329F037
:1044400088E497E00E94430C8FCC80E00E948C09A6
:10445000882309F489CCF4CF68E872E0CE01859610
:104460000E94C11365E972E0CE0185960E94C113D6
:104470004091B0035091B1036091B2037091B303C6
:104480002AE0CE0185960E948F1263E972E0CE0188
:1044900085960E94C1136CE972E0CE0185960E9458
:1044A000C1134D895E896F89788D22E0CE01859692
:1044B0000E94DB1263E972E0CE0185960E94C1136F
:1044C00061EA72E0CE0185960E94C11322E0B30139
:1044D000A201CE0185960E94DB126BE273E0CE0151
:1044E00085960E94C1138091B0039091B103A09171
:1044F000B203B091B3030196A11DB11D8093B00327
:104500009093B103A093B203B093B3030CCE6DE9C3
:1045100071E08CEC96E00E94C11367E572E08CECD0
:1045200096E00E94C1136AEA72E08CEC96E00E9469
:10453000C1136CED71E08CEC96E00E94C11301CECA
:10454000F5018083A0CE0E94E52208F481E0089561
:10455000E89409C097FB3EF490958095709561951D
:104560007F4F8F4F9F4F9923A9F0F92F96E9BB27D3
:104570009395F695879577956795B795F111F8CF4F
:10458000FAF4BB0F11F460FF1BC06F5F7F4F8F4FBA
:104590009F4F16C0882311F096E911C0772321F0B0
:1045A0009EE8872F762F05C0662371F096E8862F48
:1045B00070E060E02AF09A95660F771F881FDAF79F
:1045C000880F9695879597F90895990F0008550FCC
:1045D000AA0BE0E8FEEF16161706E807F907C0F089
:1045E00012161306E407F50798F0621B730B840B91
:1045F000950B39F40A2661F0232B242B252B21F46B
:1046000008950A2609F4A140A6958FEF811D811D0A
:1046100008950E941C230C948D230E947F2338F060
:104620000E94862320F0952311F00C9476230C949D
:104630007C2311240C94C1230E949E2370F3959F28
:10464000C1F3950F50E0551F629FF001729FBB2789
:10465000F00DB11D639FAA27F00DB11DAA1F649F25
:104660006627B00DA11D661F829F2227B00DA11DD8
:10467000621F739FB00DA11D621F839FA00D611D5E
:10468000221F749F3327A00D611D231F849F600D7F
:10469000211D822F762F6A2F11249F5750409AF0A8
:1046A000F1F088234AF0EE0FFF1FBB1F661F771F34
:1046B000881F91505040A9F79E3F510580F00C94FF
:1046C00076230C94C1235F3FE4F3983ED4F38695A0
:1046D00077956795B795F795E7959F5FC1F7FE2B9F
:1046E000880F911D9695879597F9089597F99F677B
:1046F00080E870E060E008959FEF80EC089500246A
:104700000A941616170618060906089500240A9436
:1047100012161306140605060895092E0394000CBC
:1047200011F4882352F0BB0F40F4BF2B11F460FF4B
:1047300004C06F5F7F4F8F4F9F4F089557FD905874
:10474000440F551F59F05F3F71F04795880F97FB55
:10475000991F61F09F3F79F087950895121613060F
:104760001406551FF2CF4695F1DF08C0161617063E
:104770001806991FF1CF8695710561050894089573
:10478000E894BB2766277727CB0197F908950E9405
:10479000D223A59F900DB49F900DA49F800D911DD5
:1047A00011240895A29FB001B39FC001A39F700D73
:1047B000811D1124911DB29F700D811D1124911D29
:1047C00008955058BB27AA270E94F9230C948D23E3
:1047D0000E947F2338F00E94862320F039F49F3F07
:1047E00019F426F40C947C230EF4E095E7FB0C946A
:1047F0007623E92F0E949E2358F3BA1762077307A6
:104800008407950720F079F4A6F50C94C0230EF4E4
:10481000E0950B2EBA2FA02D0B01B90190010C01D0
:10482000CA01A0011124FF27591B99F0593F50F4E8
:10483000503E68F11A16F040A22F232F342F442740
:10484000585FF3CF469537952795A795F040539538
:10485000C9F77EF41F16BA0B620B730B840BBAF008
:104860009150A1F0FF0FBB1F661F771F881FC2F773
:104870000EC0BA0F621F731F841F48F48795779587
:104880006795B795F7959E3F08F0B0CF9395880F41
:1048900008F09927EE0F9795879508950E94622456
:1048A0000C948D230E94862358F00E947F2340F0B1
:1048B00029F45F3F29F00C94762351110C94C12305
:1048C0000C947C230E949E2368F39923B1F3552313
:1048D00091F3951B550BBB27AA2762177307840713
:1048E00038F09F5F5F4F220F331F441FAA1FA9F3A9
:1048F00035D00E2E3AF0E0E832D091505040E69597
:10490000001CCAF72BD0FE2F29D0660F771F881FF7
:10491000BB1F261737074807AB07B0E809F0BB0BEA
:10492000802DBF01FF2793585F4F3AF09E3F5105FE
:1049300078F00C9476230C94C1235F3FE4F3983E07
:10494000D4F3869577956795B795F7959F5FC9F7E7
:10495000880F911D9695879597F90895E1E0660F68
:10496000771F881FBB1F621773078407BA0720F0E1
:10497000621B730B840BBA0BEE1F88F7E09508954A
:104980000E94A62388F09F5798F0B92F9927B75116
:10499000B0F0E1F0660F771F881F991F1AF0BA95E3
:1049A000C9F714C0B13091F00E94C023B1E008955E
:1049B0000C94C023672F782F8827B85F39F0B93F50
:1049C000CCF3869577956795B395D9F73EF4909596
:1049D0008095709561957F4F8F4F9F4F08950E94EE
:1049E000E52208F48FEF08950E94E522880B990BC9
:1049F0000895DB018F939F930E94C723BF91AF91CE
:104A0000A29F800D911DA39F900DB29F900D112428
:104A10000895A1E21A2EAA1BBB1BFD010DC0AA1FFF
:104A2000BB1FEE1FFF1FA217B307E407F50720F017
:104A3000A21BB30BE40BF50B661F771F881F991F92
:104A40001A9469F760957095809590959B01AC01DB
:104A5000BD01CF010895052E97FB1EF400940E941E
:104A6000422557FD07D00E94092507FC03D04EF4CC
:104A70000C94422550954095309521953F4F4F4FCE
:104A80005F4F089590958095709561957F4F8F4FFA
:104A90009F4F0895EE0FFF1F0590F491E02D0994AC
:104AA000B7FF0C94C7230E94C723821B930B089562
:104AB0000F931F93CF93DF938230910510F482E020
:104AC00090E0E091E007F091E10730E020E0B0E015
:104AD000A0E0309799F42115310509F44AC0281B4C
:104AE000390B24303105D8F58A819B816115710518
:104AF00089F1FB0193838283FE0111C040815181C2
:104B00000281138148175907E0F04817590799F4B3
:104B1000109761F012960C93129713961C9332968D
:104B2000CF01DF91CF911F910F9108950093E0077E
:104B30001093E107F4CF2115310551F042175307C7
:104B400038F0A901DB019A01BD01DF01F801C1CFF5
:104B5000EF01F9CF9093E1078093E007CDCFFE01FD
:104B6000E20FF31F819391932250310939832883F7
:104B7000D7CF2091DE073091DF07232B41F420911E
:104B80001201309113013093DF072093DE0720914B
:104B90001001309111012115310541F42DB73EB7B7
:104BA0004091140150911501241B350BE091DE0753
:104BB000F091DF07E217F307A0F42E1B3F0B281735
:104BC000390778F0AC014E5F5F4F2417350748F086
:104BD0004E0F5F1F5093DF074093DE078193919341
:104BE0009FCFF0E0E0E09CCFCF93DF930097E9F018
:104BF000FC01329713821282A091E007B091E10785
:104C0000ED0130E020E01097A1F420813181820F86
:104C1000931F2091DE073091DF072817390709F02D
:104C200061C0F093DF07E093DE07DF91CF91089535
:104C3000EA01CE17DF07E8F54A815B819E01411545
:104C40005105B1F7E901FB83EA8349915991C40FFA
:104C5000D51FEC17FD0761F4808191810296840FC6
:104C6000951FE90199838883828193819B838A833D
:104C7000F0E0E0E012968D919C9113970097B9F5C2
:104C80002D913C911197CD010296820F931F209197
:104C9000DE073091DF072817390739F6309751F5CD
:104CA0001092E1071092E007B093DF07A093DE07B0
:104CB000BCCFD383C28340815181840F951FC81715
:104CC000D90761F44E5F5F4F88819981480F591F62
:104CD000518340838A819B8193838283211531058F
:104CE00009F0B0CFF093E107E093E0079ECFFD011C
:104CF000DC01C0CF13821282D7CFFB01DC0104C0DC
:104D00008D910190801921F441505040C8F7881BC3
:104D1000990B0895FB01DC014150504048F001908F
:104D20000D920020C9F701C01D9241505040E0F79C
:064D30000895F894FFCF86
:104D3600FFFFFFFFFFFFFFFF00E100000000000094
:104D46000000E207800000C1808100000000000032
:104D5600005D0662117607BA0F3D06450F4F0F003C
:104D66000000007A03DB020803C603390317032B8E
:104D76000300000000E6032F050704FC034D040BA7
:104D8600042904000000005111DB0276073C0600EE
:104D96000000002E0701077607D706FA06E706D8B1
:104DA6000600000000C0057E12C105C313C5156EBE
:104DB600616E00696E66006F766600424D5030384F
:104DC6003500626D703138302E6C6F670078647311
:104DD600746172746A736F6E3A7B0A002020202019
:104DE6002274797065223A226C6F67222C0A0020A1
:104DF600202020226D657373616765223A22536510
:104E0600747570205374617274220A007D3A786456
:104E160073746F706A736F6E0020202020226D6598
:104E26007373616765223A224C6F6F702053746109
:104E36007274220A00202020202274797065223A9A
:104E460022626D705F637572222C0A00202020207A
:104E560022636F756E74223A002020202022636E32
:104E660074223A00202020202250726573737572D6
:104E760065223A00202020202254656D70657261FB
:104E860074757265223A002020202022747970659C
:104E9600223A226572726F72222C0A00202020208C
:104EA600226D657373616765223A2246696C6520D7
:104EB6004572726F72220A00747970653A626D707B
:104EC6003138302C00636F756E743A006870613A41
:104ED6000063656C736975733A0020202020226D8B
:104EE600657373616765223A2253656E736F72202C
:104EF6004572726F72220A00202020202274797077
:104F060065223A22737461747573222C0A0020207C
:104F160020202266696C655F73697A65223A0020F3
:104F26002020202274797065223A22696E666F22EB
:104F36002C0A00202020202262797465223A220061
:104F460020202020226D657373616765223A226EE8
:0E4F56006577206D657373616765220A000040
:00000001FF
